:20000000A03A01208125010039FB021039FB021039FB021039FB021039FB021039FB02109A
:1C00200039FB021039FB021039FB021039FB021039FB021039FB021011FB021002
:20003C003C3800201831002090370020003200205010002030350020443800201436002063
:20005C00A0370020F4320020281800008E1C00002E1D0000AA1C00009C1C0000B03700208D
:20007C00840E0020880E00208C0E0020900E0020940E0020980E00209C0E0020A00E002064
:20009C00A40E0020C0370020C831002054370020203300207A13000008130000EC1300007D
:2000BC005E140000D0140000441B0000D01C0000C41C0000953800200C3800200C11002015
:2000DC00303600200C10002023380020523800209432002068370020D00A0020A80E0020A8
:2000FC00FC110000AA0F0000C8160000300A0020601C0000AC2B00208C38002088380020AF
:20011C00AC0E0020B00E00207C380020E8170000003700202C2D0020E82F00201C160000FF
:20013C00BC1100206438002074380020681D0000C21D0000500E002014270020D8120020E7
:20015C00014A031049480310D54903101547031045CC00005D49031081470310A146031042
:20017C009548031045450310254A031021440310ED47031099490310E148031021490310E7
:20019C005553031089520310CD520310655003108D4E0310ADD30000BDE900006111010019
:2001BC00955A000059510310ED500310F1C20000CD4B03102952031011530310A955031033
:2001DC007555031069530310DD550310355503105DD2000021540310855C03100D56031054
:2001FC004D5D0310A9640310B55B03106D570310E5610310095E0310C55803108560031011
:20021C0071610310B16203109963031055630310FD600310B15E031039B10000D55A03101F
:20023C00D559031009630310D963031019640310555F0310C56403104D6203107164031056
:20025C008D64031055640310E16403102975031079720310A16B0310F57203109D740310EE
:20027C00797403102D74031061730310FD7303105574031015750310D96C0310FD740310EF
:20029C00D1790000E17403103D75031079700310F9640310CD6803102D710310C17403101E
:2002BC00F56E0310B973031029670310056E0310C56F031011DF0000A1770310797D0310D9
:2002DC003D7E031049750310157E0310357D031099760310997C0310257B031071780310FF
:2002FC00B57D0310ED7C0310857E03102D790310B97A0310917B0310B1790310ED7B031035
:20031C00E97D0310617E0310357A0310D57E0310457C0310A57E0310BD7E031045AC0000E5
:20033C00D9800310E97E031049830310898403108D8103107D820310E58403102B8403104B
:20035C00C5830310918703106188031045880310F1850310B18803107D880310C9880310CE
:20037C001D870310A186031001850310E188031099880310F9870310F9BF0000359C0310F8
:20039C00819D0310E99A0310359B0310C19B0310419A0310F18803101D8C0310618F0310EF
:2003BC00F1940310919E0310C19E03103D9E0310699E0310259E0310619D03100D9E031028
:2003DC00819B0310ED93031055990310C9970310D9980310BD950310959C0310C19D03102D
:2003FC00A59E03107D9E0310C991031065EF0000699C0310DD9D031095900310FD9B031014
:20041C00CD990310158E0310019D0310E19C0310219D0310419D0310BD9C0310F59D03107D
:20043C00A19D031055980310E1920310999A0310B99E0310559E0310A94F01009F6C01000E
:20045C0039A203103D68010069A1031075A20310C59E0310B9A10310F9A1031015A103104C
:20047C009DA203107178010043CC0000A54E01001D6D010099770100EDF6000031A90310B5
:20049C00ADA203105D820000B9A8031099A50310319E000039A803106DA90310E5A80000C1
:2004BC006DAC031099B1031009AF031059B1031001B103109DA90310DDF500006DE700006B
:2004DC007F3A01002DD80000955F0000D92C010005D30000916A00009D930000F1A00000B3
:2004FC0009A80000F1B9031075BA031081BB03101551010029E900000919010071B4000020
:20051C00F9420100AD140100E156010015150100A94B0100F9620100C56B0100551E010068
:20053C00F13501008156010049510100710501002D6F01009DFB0000393F01005D6F010013
:20055C00FD1D0000495C0000F15D0000056F0000E9C6031091510000CD620000355E010097
:20057C0021FC00001B53010055CE000065790100B96C01000D5E0100CF7A01008926010045
:20059C007DF00000B5ED000001000000000000000000000000000000FFFFFFFF9012002071
:2005BC000400000000000000000000001400000030FD021018000000981D00006406000091
:2005DC00681200200400000000000000000000002400000018FD0210180000004D70010040
:2005FC00080000005407000018060000C1C8021001BB021091EB0210DDE5021081E0021020
:20061C00B9E5021071E50210310000000100000001000000F81D000000000000FFFFFFFF62
:20063C008812002004000000000000000000000028000000B8FC0210240000001E000000B0
:20065C001800000000000000CC080000780600009BEC021025E2021005EB021025DE02104B
:20067C00FDE10210E1E402102F000000340000002400280000000000CC100020FFFFFFFFF0
:20069C00B0120020040000000000000000000000380000006CFC021028000000010000007D
:2006BC00100000000000000000000000F7F1021000001A001000000003000000181D0000B2
:2006DC00BD1D0000080000003600000070100020E40E002009001D00373E0100180E002052
:2006FC000100000000001200FFFFFFFFA012002004000000000000000000000010000000E9
:20071C0048FD0210180000000000000000001300FFFFFFFFB8120020040000000000000051
:20073C000000000054000000A0FB02103C000000000001002D000000A80500001F3701002E
:20075C003000000099760100540700007C07000091270100D9DB021059EC0210CDD60210D4
:20077C0085DE02104DE5021029E5021030000000000016000000000000000000FF7F0000C0
:20079C00B00C0020FFFFFFFF9812002004000000000000000000000058000000DCFB021056
:2007BC003400000039FB021001002F00060000000000000020000000010000001BF8021027
:2007DC0028000000CC080000F407000093EC02106DEB02104DEC021029E00210BDE40210F2
:2007FC0099E402102D0000000000000070120020040000000000000000000000100000006B
:20081C0040FC02102C000000000000000000030000000F003C0000000000000000000000F4
:20083C002FF902101000000008000000D81B0000FFFFFFFFA812002004000000000000007D
:20085C00000000001C000000DCFC021024000000E0070000581200200400000000000000DD
:20087C00000000000C00000000FD0210180000006F4501000000000000000000080000006C
:20089C000100000004000000000000000000140000000000181700000000190000001800C3
:2008BC0024000000FB7A01000040000000020000A80500000000100055F002100C00000020
:2008DC00898F000000000000501200200400000000000000000000002000000010FC021020
:2008FC00300000003017000001000000D57901000B130100000000000000170000020000DD
:20091C00310000000000230000001500010000006407000080120020040000000000000030
:20093C00000000002000000094FC0210240000004817000000120020200000005819000093
:20095C00242B00209031002020120020343800205C0C00204C380020701100000038002048
:20097C00982A0020B02C0020A62F0020E8110020D4120020601D00000908031001010310B3
:20099C00890903105D0303100105031089060310D1080310210A0310810B0310810A031001
:2009BC00110B0310510B0310D10A031029100310610D0310890E0310050E0310B50F03101B
:2009DC00D10B0310511003103D10031065100310FD0E0310ED0F0310B50C0310650F031028
:2009FC00111003106910031009120310F5120310AD110310291103105D120310B11203105D
:200A1C0019250310552703108D240310F12603100528031089260310CD2303105928031053
:200A3C00ED1F0310251303100D210310911D0310B12703100D2203109925031019260310DE
:200A5C00A91B0310CF2803109528031039290310052903106D29031099160310C91E0310AE
:200A7C007D1903100D230310C92C03101D2C0310292D0310B52B0310F52C03109D290310A1
:200A9C00CD2A0310452B0310472D0310112D0310412D0310752C031029340310C138031024
:200ABC0071360310A12E03108133031021370100A93A03103D3A0310C53403101138031076
:200ADC00753A03104D2D031009320310E12F031015390310F939031019310310B13703103C
:200AFC00F5350310B13903105D350310C5320310E5360310693903104D370310253D031002
:200B1C00413D0310F53C0310C93A0310A53C03109D3D0310593D031019430310CD3D0310B8
:200B3C00A14303104D400310093F031061420310CD400310C9430310E5430310C93F03105C
:200B5C0011440310FD4303101F440310A942031019420310E1420310C141031075430310C6
:200B7C0049430310494103101B440310AD0B03106B7A01006F7A01007B7A01000B79010095
:200B9C007F7A0100777A0100737A0100877A0100837A0100683800206D400021D740002199
:200BBC009940002105410021114100211D410021354100214D410021074C657900F009F85E
:200BDC0061796940490703D50121044A8903116070BD70B5024908478003002108110440F4
:200BFC002D59000000F019F8E1B26C290BD0042801D0062807D110490978C90703D1217835
:200C1C00090700D402200D490A780C21114202D00B4980220A6003B0F0BDF0B583B009499E
:200C3C00084700200849884704480178402291430170064800470000C800002133010021CA
:200C5C0000E200E041160300F7630000231B030000F082F800480047577F000000F082F888
:200C7C00004800471B880000094B1A780824A243002800D022431A70004A1047838E000096
:200C9C0003490878000701D40248004770470000800300215F7E0000044A2820904704480E
:200CBC00012141600348044A416010474F42000000500440006004408542000070B51F4DA3
:200CDC002878C4B21E4880472878032834D1032C32D01C488068400DC2071A480146603118
:200CFC008030002A03D01F240C57458802E01E240C570588002C1FD01348154A41690079AC
:200D1C004143481011494969401810494039497F904740054015694288420DDBA8420BDC3E
:200D3C000C4B996988B20246090C624309045212801880B20843986170BD0000E40200214F
:200D5C0079410000280000218003002100030021CB81000040400440806B0C490007000F46
:200D7C0048717047094A0A4918235079CB56497EC018814201DD084602E00F2800DD0F2069
:200D9C00D189090909010143D1817047E0020021880000210097B92EE5725CCB5DCAE4734E
:200DBC00B82F0196BA2D03945FC8E671E7705EC90295BB2CE3745ACD0691BF28BE29079027
:200DDC005BCCE27559CEE077BC2B05920493BD2AE17658CF51C6E87FB4230D9A0C9BB52207
:200DFC00E97E50C7EB7C52C50E99B720B6210F9853C4EA7DB2250B9C57C0EE79EF7856C1E7
:200E1C000A9DB324089FB126ED7A54C355C2EC7BB027099EA2351B8C47D0FE69FF6846D1C6
:200E3C001A8DA334188FA136FD6A44D345D2FC6BA037198E41D6F86FA4331D8A1C8BA532A6
:200E5C00F96E40D7FB6C42D51E89A730A6311F8843D4FA6DF3644ADD1681AF38AE39178086
:200E7C004BDCF26549DEF067AC3B15821483AD3AF16648DF1087A93EF5624CDB4DDAF46366
:200E9C00A83F1186AA3D13844FD8F661F7604ED91285AB3C00CD2A031000452B0310021F12
:200EBC0044031000FD430310011F44031000FD43031003D10B031000FD43031004511003F5
:200EDC001000FD43031001472D031001412D031001FD43031001FD43031001FD430310008D
:200EFC00752C031001FD43031001FD43031001FD43031001FD43031002472D031002412DD9
:200F1C00031002FD43031000752C031002FD43031002FD43031002FD0E031002FD4303107A
:200F3C00046510031000FD43031003472D031003412D0310031F440310031F44031003FDB6
:200F5C0043031003D10B031003FD43031000752C031003FD43031003FD43031004472D03FC
:200F7C001004412D0310041F440310041F440310041F440310046510031004FD430310046B
:200F9C00FD430310043D10031000752C03100001363601010001020100010301000104014C
:200FBC000606080400000C0100340D01000F10040101140100FF1608000020020000220112
:200FDC0000FF23010001240100FE250100082602000028010001290100012A0200002C01AA
:200FFC00000F2E0200003001000131010008320200FF34010007350102FF36010000370115
:20101C00000138010001390100FF3A01000F3C0200FF3E01010F3F0100014001041F410183
:20103C000001420100FF43010080440800004E0100084F01000F50010001510100FF520195
:20105C00000A5301008954010001580400005C0400006004000064040000680400006C04D3
:20107C0000007004000074040000780400007C040000800100FF8101000182010001830161
:20109C000102840100010001DC1200209738002098380020DD12002053380020DE120020F3
:2010BC00DF1200207D78010021570000856E0100E55B0100B95B010059220100B5220100F7
:2010DC0079E400006D3D01009D5F010045500100C13401006F79010061720100216501001F
:2010FC00DD4F0100B1620100755F01008D5B0100014B0100AD50010075F700002DB9000038
:20111C00175D0100D9250100DD330100597801006578010003CF0000916A0100D7E60000F3
:20113C00E1E30000293D0100D1D800001150010089780100C1660100E56E0100C96A0100AB
:20115C006D49010041730000696201000904010029340100000000000000000000000000D0
:20117C00000000000000000000000000000000000000000000000000000000000000000053
:20119C00000000000000000000000000000000000000000000000000000000000000000033
:2011BC00000000000000000000000000000000000000000000000000000000000000000013
:2011DC000000000000000000000000000000000000000000000000000000000000000000F3
:2011FC00360001000600000000000000000F00000000000000000000000000000000030084
:20121C00FFFF00000403FFFF0000FFFF0F00E8030005401F0310000101000000FF3F0F00F1
:20123C0008000E0000000000000000000300010F000009010000000000000000000000005F
:20125C00000000000000000000000000000000000000000000000000000000000000000072
:20127C00AD00000100000000000000000000000000000000000000000000000000000000A4
:20129C00000000000000000000000000000000000000000000000000000000000000000032
:2012BC00000000000000000000000000000000000000000000000000000000000000000012
:2012DC000000000000000000000000000000000000000000000000000000000000000000F2
:2012FC0000000000000000000000000001017101010101011101010131010101010180018F
:20131C000001100161013B001400630173017201620143010001130106013D013500040168
:20133C001201000100010001000104010401330133013C01440132013600000100016501B5
:20135C0000013500810100010501820183010001660100010001080109010A010B01030014
:20137C00710030016000110070003102200350048000070010006100000014006300730042
:20139C007200620043000000130006000000000004001200000000000000000004000400E3
:2013BC00370037003C0244000000000000000000650000003500810000000500000083007E
:2013DC000000660000000000080009000A000B0003027102300160021102700201020202CE
:2013FC00020280020002100261023A00410063027302720262024302000213023800000211
:20141C00000204021202000200020002000204020402370037003C02440200023900000251
:20143C000002650200023502810200020502820283020002660200020002080209020A02CA
:20145C000B020103710301030103010301030103220302030103000310030003000300038A
:20147C0000030003000300034203000324030603000300030403120325032303250323030E
:20149C00040304030003000300034403000300032303000365032100350381030003050353
:2014BC00000300030003000325032303080309030A030B0303047104020460041104700415
:2014DC00020402040104020400041004610400041404630473047204620443040004130424
:2014FC0006040004000404041204000400040004000451046400000400040004440400047F
:20151C000004000400046504000435048104640005040004830400046604000400040804FE
:20153C0009040A040B0401046B6C01009170010075EB0000B93F010041650100E5E00000C1
:20155C00950301007D64010061650100F15801001F590100B5440100E9520100956D010031
:20157C003120010015320100791701008D200100DBFD02101D63010011DC0210F1EF00002C
:20159C00E1770100115C0100E9700100437A0100196C0100B94B00008983000000000000BA
:2015BC000000000000000000C56D010001730100C1070100C5720100077A0100017A010068
:2015DC001573010000000000A57901004D070100C90B0100E969010095EC000029740100AB
:2015FC0095AA00009D47000045F400004166010000000000D124010095690100B5DA000047
:20161C0000000200000002000200020000003200040001000000020000000000000000006D
:20163C000500010000000700060001000000030007000800000000000F0001000100FF0058
:20165C001000080000000000180008000000000022000200000000008F0000008F000100F3
:20167C008F0002008F000300900000018F00010190000002900000038F0001048F000005BC
:20169C008F0008048F0000048A000006510000007F0001003F0004003F0002003F000100DB
:2016BC007F0002008F0002048F00010238C40D00C80000008100000032000F0100C50D0000
:2016DC00900100004000000096000501952B0D00C80000002200000032000F020000000087
:2016FC00000000000000000000000000000000000000000000000000000000007B7374610B
:20171C007469632D696E7374616E63652D6E616D657D00C07B656D7074792D696E737461EA
:20173C006E63652D6E616D657D00C0467B756E6B6E6F776E2D696E7374616E63652D6E61FD
:20175C006D657D006D2301001FF9021045F8021059F802106DF8021081F8021095F8021010
:20177C00A100010001580100B94301009F4D010089630100B5730100E1670100C14C0100FA
:20179C00ED76010035700100410F01009971010081740100FB760100717401008D79010072
:2017BC00E3790100DD79010000000000000000000000000000000000000000000000000059
:2017DC00000000006F76010061760100C003000080070000000F0000001E0000003C00007C
:2017FC000078000000F0000000E0010000C003000080070000000F0000001E0000003C00D1
:20181C00000078000000F0000000F0000000000002000000020000000A0000000200000044
:20183C00020001000000000000000000000000000000000000000000000000000000000089
:20185C000E000000043800000000000000000000000000000000000000000000FF00000023
:20187C0000000000000000000000000000000000000000009D790100F57901007154010000
:20189C00096901008D2A010025690100A1FD0000D53B0100BD770100497C0000073800008A
:2018BC0000000000000000000001A1000F3333004C0220C80800C810700F00206403008059
:2018DC000500000095FA0000DD170100AD790100DD7100000D7B00000D7A0100F9320100B2
:2018FC0069A50000137A010051EA00005407000020190000017601001176010031760100B9
:20191C002176010091580100D1630100955C01003200000000B00040140000003400000098
:20193C00FF000000000000000D0CFFFFB034002020000000010300000000000015F902102D
:20195C0001E602102DDA021045E7021041D10210C9D30210A5DF02102DE4021061EA021033
:20197C00F943010000000000FFFFFFFFFFFFFFFF00000000000000000101010100C201004F
:20199C000300000000000000CC080000B8190000E77A010021F200009109010031580100E9
:2019BC00AD630100695C01002E000000000000000000000000000000000000000000000006
:2019DC0000000000000000000000000003380000000000000000000000000000140000009C
:2019FC00000000000000000000000000FFFFFFFF0000000000000000000000003A013A0159
:201A1C000000000000000000000000000000000000000000000000000000000000000000AA
:201A3C0000000000000000000000000000000000000000000000000000000000000000008A
:201A5C00000000000000000000000000A41900006012002004000000000000000000000017
:201A7C00200000005C1B0000180000000819000078120020040000000000000000000000CC
:201A9C0014000000E01A00001C0000000D0480800C4000800F2000800E20008006048080BC
:201ABC0007048080FE000000053800000000000000000000000000000000000000000000C4
:201ADC00000000001C0000000000000000000000F41A0000000000000800000000000000B8
:201AFC000100000040420F000100000000000000000000000000000003080000000000002C
:201B1C000000000000016403000000000000000000000000000005800000068000000780AF
:201B3C00000000000000000000000500BD00B700B100BC001C0030003800080038010200DC
:201B5C001800000000000000000000006C1B000008000000000000001404C0A00A0480A01C
:201B7C00090480A008400080FE000000AC1100209C1100200400000004000000FFFFFFFFA8
:201B9C0000000000A1B70000856C01000101010000000000020000000000000000000000DA
:201BBC00FFFFFFFF00000000000000000600000002000000860000008200000001000000FC
:201BDC0000000000000000000000010000000100001610160E18151C0212032418580302A4
:201BFC0010025801000100010203000100010001020001020200000000000000FFFFFFFF51
:201C1C0000000000D02D0020A2100000F82D0020A310000005000000D0070000C80000003D
:201C3C00FF000000E0290020C61D00003C2A0020C81D0000000000002000000040000000B2
:201C5C006000000088B22400881300001000000000000001000080800000808400208084D6
:201C7C0000408084000000000000000000000000000000A6AAACA4A9A9A399B19ABCB6A871
:201C9C00313118191A22311C1E2031313431313117191A21241B1D1F31313331FF000000FA
:201CBC0000000000000100000C0E020B040B0A070800110F000120181A18182C34041E0093
:201CDC009018000084380020881D0000FF0001000000000000000000E0180000582500202A
:201CFC003019000000000080002000800040008000000080000400800008008025DD0210FF
:201D1C0031C8021075DF021033333333333333330301020402010101010902FF010200037E
:201D3C000200010300BE040A00BE02081404C0A0FE0000003333333333333333FFFFFFFFE3
:201D5C00FFFFFFFF35452515020305040004081000040810E8360020371D0000E8030000F4
:201D7C0000006400FF0000000000000000E004000080000000000000080000000000000078
:201D9C000000000010040810181C10000810182004040810181C0000010203040001040004
:201DBC000000FFFFFF9600010509020103010000000000001000000001000000377A01009B
:201DDC00EB7A0100AF0F01003D7A0100A1780100AD780100E37A01000A000000AD6D010047
:201DFC002DE9F04FC84C0746A068D0F80001807AADF1340DC0000CF0AFFE0028089000F04E
:201E1C00F68115F036FEA1460B90D9F80800D0F888240AA982209047BDF8280009F1080517
:201E3C0000283FD14FF000084FF6FF74ADF828800BE0D2F894238DF82480D42004A99047F5
:201E5C00BDF82800401CADF828002A6802F580721068BDF828108088884205DCD2F894234C
:201E7C0082200AA990471DE0ADF81440BDF82800ADF81640FF210822ADF8100006A80EF0A1
:201E9C007BFA2A684646304602F580721168897A8142CEDD089BC100401C5E50C0B2C91889
:201EBC008C80F3E700204E46ADF82800B068D0F800012A680089B3464FF6FF79DA4602F5D6
:201EDC0091620CE0BDF828005D46401CADF82800A8682268D0F8000102F591620089BDF8D3
:201EFC002810884240F373815C4608342068D0F800014FF001080021C07A0C910D4616E0E5
:201F1C0022680AF108042068D0F80001C0886D1CADB202F5916250E0226806F10804206864
:201F3C00D0F800016D1C02F59162ADB2C07AA84209DCB8F1000FC5D10C98002833D1F87F4C
:201F5C000028BFD02FE08DF80250BDF82800ADF8000012686946D02090470028DCD19DF8EC
:201F7C000C0001280AD19DF80B0038B92068D0F81C150DF1030088470028A3D13B7D9DF86A
:201F9C000C00002B0CBF052209224FF000088342C2D10DF1030007F1150114F0C3FA00283A
:201FBC00BAD001250C9522680BF108042068D0F80001C088002502F59162A84264DDADF8AA
:201FDC000250BDF82800ADF8000012686946D1209047002894D1BDF80400814590D0ADF80F
:201FFC0010002068D0F8882404A9D4209047002840F01E8106A8391D082214F093FA002863
:20201C003FF47EAF38880C9A7B88ADF81400ADF8163022B3387BB3688DF82400D3F800011F
:20203C0090F80AC0002001E0401CC0B2844507DC0B9854F0C3FB0898002800F00081FCE0FD
:20205C00089901EBC0018A88914503D0BDF828309342E9D138690860BDF828308B80206816
:20207C00D0F8942404A9D42090470C9860B1B87F9DF80610884207D08DF806002068D0F839
:20209C0094246946D1209047226802F580721068C088A8427FF416AF06F108052868D0F844
:2020BC00000180884FF00008B0E02868D0F81C150DF1180B5846884738B9391D58460822FE
:2020DC0014F030FA002800F0948038887E88DAF808303C7BADF814002A68ADF81660D3F8D2
:2020FC0000018DF8244090F80AE0B832002001E0401CC0B2864509DC0B9854F05FFB08981E
:20211C00002874D071E0C0460C0100200899C40001EB040CBCF80430994503D0BDF828607C
:20213C009E42E5D10C9E381D002E0CBF00233B69CCF80030BDF8283009198B80446806AEA0
:20215C0074600368336011680E783EB10E6D2EB1BDF81010324690472A68B832002403E0A2
:20217C002A68641CA4B2B832906CC188A14229DDADF80240BDF82800ADF80000D2F8D0239D
:20219C006946D1209047E82803D0BDF804008145E6D10023BDF810008DF80730BE7FADF80D
:2021BC00040029688DF80660D1F89424D42004A990472868D0F894246946D1209047286873
:2021DC00D0F800018088A04213DD404508D00B9854F0F4FA089808B111F0E0FE00202FE0A7
:2021FC000B9854F0EBFA089808B111F0D7FE1A2026E02A6808F101000AF108051FFA80F863
:20221C002868D0F8000102F5807280884045DCDDD2F88823ADF81080D42004A990470028D0
:20223C003FF443AF0B9854F0C9FA089838B104E00B9854F0C3FA089808B111F0AFFE192062
:20225C000DB0BDE8F08F70473EB500900DF01AFD8DF8080000980949006808600098084903
:20227C00406808606B48302200210EF085F89DF908000E2806D13020019005E0E80D00200B
:20229C00EC0D00202820019000988168019A61480BF01AFF6049087840F0800008705F495E
:2022BC00087820F0400008705C49087840F0800008705B49087840F0E00008705A4859497D
:2022DC00088000985949C0681CC81CC10DC881E80D00C849087840F0800008700098C6498C
:2022FC00C0681CC81CC10DC881E80D00C349087840F0800008700098C14900693CC83CC1CE
:20231C001DC881E81D00BF49087820F00F000870BC49087840F080000870BB49087840F0B6
:20233C0008000870B94910200870B94900200880B848B849007820F00F0040F00400087069
:20235C00B449087840F0800008700098B24940693CC83CC13CC83CC11DC881E81D00AF491B
:20237C00087840F080000870AD49087820F001000870AB49087820F002000870A84908782B
:20239C0020F004000870A649087840F008000870A349087820F010000870A149087820F0F8
:2023BC00200008709E49087820F0400008709C49087840F0800008709A49087820F0010039
:2023DC0008709849087840F0020008709549087840F0080008709349087820F0100008705C
:2023FC009049087840F0200008708E49087840F0400008708B49087820F0800008708B4832
:20241C008068D0F800018849C0890880884800780EE0C04634320020403200204A3200205D
:20243C004B320020563200200080FFFFA03600207F4920F03F0040F0100008707C490888A3
:20245C0020F4F86008807B487A49007820F0F80040F05800087078496FF00300087077480C
:20247C007649007820F00F0040F0040008707349087820F0100008707049087820F06000C1
:20249C0008706E49087820F0800008706D486C49086000986C4980693CC83CC10DC881E822
:2024BC000D0057486949086069486949007820F00F0040F0030008706549087840F08000B7
:2024DC00087064486349007820F00F0040F0030008706149087840F0010008705E490878D4
:2024FC0020F0020008705C49087840F0080008705949087840F01000087058496FF0520035
:20251C00087057494FF42070088056485549007820F00F0040F0030008705249087820F083
:20253C00F000087050485049007820F00F0040F0040008704D494FF4FA50086000984C49EB
:20255C0080693CC83CC10DC881E80D003E484949086049484849007820F00F0040F00200BF
:20257C0008704549087840F08000087043484349007820F00F0040F003000870404908782F
:20259C0040F0010008703E49087820F0020008703B49087840F0080008703949087840F0FF
:2025BC001000087037496FF05200087036494FF42070088035483549007820F00F0040F032
:2025DC00030008703149087820F0F000087030482F49007820F00F0040F0040008702D4949
:2025FC004FF4FA50086000982B49C069086009F055FD3EBDAC360020B8360020C4360020BD
:20261C00F0340020FC340020FE340020FF3400200035002003350020643200207032002040
:20263C0072320020733200207C3200200C0100207E3200207F3200208232002083320020B0
:20265C008432002000C42264C0350020C4350020CC350020CD350020D0350020D135002082
:20267C00D4350020D6350020D7350020D8350020DC350020E0350020E8350020E9350020B0
:20269C00EC350020ED350020F0350020F2350020F3350020F4350020F00D0020C8482DE93B
:2026BC00FE4F0C460068DFF810C30092B830C169DFF808B391F88320BE490193012A00F035
:2026DC00A180BF4FC9480668009B7868019AC06802244FF0010904EA03084FF0E044002502
:2026FC0080F8009014400D7008BFB8F1000F35D119464FF48030134615EA030700EA0100C1
:20271C0008BF00281BD10A464FF40030294611EA030700EA020008BF00280CD11F464FF42B
:20273C008000394000EA020008BF00280AD035710EF09CFC06E0357111F02CFB02E0357157
:20275C0053F050FC0099019E20202F460840374008BF00283DD014F0E1F93AE0C24991F999
:20277C000000002803DD91F90000401E0870C64991F90000002803DD91F90000401E0870D4
:20279C00604602685AB1019918464FF0807728400F4008BF002819D0284601469047009821
:2027BC0001994FF0807728400F4008BF00280DD0B64991F90000002803DD91F90000401E31
:2027DC000870584680F8009014F066FB35710EF04DFCAD4991F9000058B1002C08BFB8F148
:2027FC00000F00F04A8191F90000002800F3458134E1734FA64805703868D0F858242946FB
:20281C00084639E16E4A4FF0010A202700255268009EDFF88482D268DFF8889282F800A04C
:20283C001F400D7005EA060108BF002940F0818060460268194633464FF0E0472E460F4078
:20285C0006EA030008BF002842D11946019BDFF84CC2DFF84CE24FF4860016EA030700EAC5
:20287C00010008BF002819D18A4816EA030700EA010008BF002870D047460A46002BBC8028
:20289C0007F1280080E80C0004BF101CB0F1806F63D16046008802285FD111E047460A467F
:2028BC00002BBC8007F1280080E80C0004BF101CB0F5803F51D160460088B0F5505F4CD1ED
:2028DC00786977464369386821462A46984744E0654991F90000401E08705AB10199184607
:2028FC004FF0807730400F4008BF002810D02846294690470098019B4FF0807706401F4035
:20291C0008BF002E04D0584680F800A014F0C4FA4A46B2F90000844201D10EF0A7FB47465A
:20293C006FF001005849B88091F90000401E087013E06FF001014A4600681180007860B17C
:20295C0059480078832802D05849812008704746F96811B128468847BC80019B0099DFF8D6
:20297C002891414EAA4602201AEA030700EA010008BF00285CD04E494888474643F2014162
:20299C00814235D0C91C814232D04A49098840F609028A422CD0B7F9043096F900109C421B
:2029BC00A1F1010131700DD043F6040181422AD127E0C046D01100202C1A0000D111002097
:2029DC001401002007F1280090E800182C464FF4820314EA0C0403EA0B0008BF002802D1F4
:2029FC000EF044FB0FE053F0FDFA0CE060330020387896F90040401C3870601E30700EF017
:202A1C0035FB13F0E5FA2D4B2948458018686FF00104D0F8B800BC80007810B1264800781B
:202A3C0008B914F039FA99F90000401E89F8000096F9000008B91648057099F90000A8B103
:202A5C00009A019F02214FF0E0401140384008BF002912D099F9000000280EDC1748006898
:202A7C00D0F84C05804708E0D911002013480068D0F8582429462846904710484068C06885
:202A9C000570BDE8FE8FC046D8110020DA110020CE11002000000C8CA00B0020663200203F
:202ABC00F40D0020A40B0020963800209138002064320020A2360020933800201401002065
:202ADC0000B5ADF11C0DADF8081000900020ADF8100000208DF8160000208DF818000020A4
:202AFC008DF81900C548006830B1C4480068804710B90B208DF819009DF8190008B1002072
:202B1C00E1E1009840788DF81400009880788DF81500BB480078401EADF80C00BDF808007D
:202B3C0018B100980121C17304E0B54800990078401EC87300208DF8120037E09DF81500BF
:202B5C009DF8121088422CD09DF81200002101AA042312F067FC9DF8060010F0030F04D05C
:202B7C009DF81800401C8DF818009DF804007C2803D09DF80400782813D1F8208DF81300B6
:202B9C009DF812009DF81320062112F015FF9DF81210880000EBC100009909189DF8130020
:202BBC0008769DF81200401C8DF8120094489DF8121000788842C1DC91489DF81810007861
:202BDC00401E884201D100207DE1BDF80C00002800F02B810098C07B10B900980121C17352
:202BFC009DF81400002101AA042312F01BFCBDF8080030B39DF8060010F0030F21D08048FE
:202C1C0002789DF81400401C90FBF2F15143401A8DF8140000984FF40051018200999DF847
:202C3C00140048730099C87B401EC873BDF80C00401EADF80C00BDF81000401CADF810008E
:202C5C00EEE09DF80400702805D09DF814100098702210F013FA9DF81500002101AA0423F7
:202C7C0012F0E0FB9DF80400FE2805D09DF815100098FE2210F002FAFE208DF813009DF80E
:202C9C0015009DF81320062112F096FE9DF81510880000EBC100009909189DF813000876B0
:202CBC0000999DF81500087300984FF40051018200999DF8140048739DF81410880000EB62
:202CDC00C10000990918888B009948820098FF218173009800218182009854F06FFF8DF8B0
:202CFC0017009DF81700102801D10020EBE0BDF8080010B1BDF8080000E01020ADF80A0006
:202D1C00BDF8080050B10098BDF80A10008AC0F50050814202DC01208DF816000098BDF839
:202D3C000A10008AC0F50050814206DC9DF8151000987C2210F0A2F905E09DF81510009867
:202D5C00782210F09BF9009804F088F9ADF80E00BDF80C00BDF80E10401AADF80C00009931
:202D7C00BDF80E20C87B801AC873FC208DF813009DF815009DF81320062112F01DFE9DF83D
:202D9C001510880000EBC100009909189DF8130008760098BDF80E1080784018BDF810104E
:202DBC00401817490A7890FBF2F15143401A009988701348027800988078401C90FBF2F1A1
:202DDC005143401A009948700020ADF810000098817B880000EBC10000990918888B1028F6
:202DFC0010D1074802780098807B401C90FBF2F15143401A8DF8140008E0C046883700205C
:202E1C008F3100200098807B8DF81400009880788DF81500BDF8080010B19DF8160020B95E
:202E3C00BDF80C0000287FF4D5AE7C2010F072F98DF812009DF81200FF282BD17E2010F091
:202E5C0069F98DF812009DF81200FF2822D100984178880000EBC10000990918887DFF2831
:202E7C000AD1009840788DF812009DF8121000987E2210F003F90DE0144801780098807837
:202E9C00401812490A78401E90FBF2F15143401A8DF812009DF812000099C8700098C17847
:202EBC00880000EBC10000990918888B0099C880009881780098FE2210F0E0F80098008AD1
:202EDC00C0F5005000B207B000BDC0468F3100202DE9F04FCA4F80463868416EADF1440D53
:202EFC0002A88847DFF81CB30BF108042268106C05682DB9D2F84C0580472268106C0568E1
:202F1C00C14801216E6867680170307800F020000C90F868037853B9D2F858240846002164
:202F3C0090475C4608342068006C05686E682D8913F098FB002702200F90338810971809D2
:202F5C000BD32068D0F8B800077837B12946304609F0C2FE002840F084812946304609F02F
:202F7C00C2FF2068D0F828240AA9642090472068D0F8B80007783FB160680069007810F0AA
:202F9C0003FB012840F06A81DFF8DC922368A81C87B209F110000780D3F828240DF1290136
:202FBC00E92090479DF82900012805D13D46C5F3022040F0180005E02D1DADB2C5F302204B
:202FDC0040F0080006F8010DC5F34011284606F8015D08F0A3FF0790DDF840A0C9F81C609B
:202FFC009DF82800A9F802A000280CBF9F48A0485746A34E9F4D0B9706F11001059705F13D
:20301C00100308601968C9F8180021B12068006C00680C3088472846806808B18047089018
:20303C00954D994FA5F802A0B81CA0F800A0687B20F00F0040F00300687314F01AFD0D9097
:20305C008E48B8F1010F0E901CD0B8F1040F19D0B8F1000F15D0B8F1050F0FD0B8F1030FA2
:20307C000AD12168D1F8D40090F85300D1F83C148847C07B022805D04F4602E081480E9058
:20309C0000E03D460C98002856D0C9F8046099F80D0020F00F0040F0020089F80D007B4F53
:2030BC00A6F802A0307B20F00F0040F0070030733978AA23B3FBF1F223684FF47A78B8FB8E
:2030DC00F1F0801A042211FB02F109B24143B160D3F8D400D3F8181490F853008847042878
:2030FC000DD0216840318A6F3B78177898FBF3F080B2002F0CBF983000F5F4700EE0216868
:20311C0040318A6F3B78177898FBF3F0CC3080B2002F0CBF00F5907000F5CC605C4A80B25B
:20313C00862743439800177000F57A603062594B0F93202610960CE099F80D0001215F463D
:20315C0061F3030089F80D005046B968C9F804004031514A514F524B10689046514E3A681A
:20317C00934209D0328AB0F840309A4204D13246C38FD2899A4212D0A6F802A04A4A756074
:20319C0001231370727B22F00F0242F0020272735246B260327B35466AF3030232735246D0
:2031BC00AA602A7B6AF303022A738A6F1678BEB109680E68A6B1317D352911D01048006864
:2031DC00C06B8047A860287B20F00F0040F00200287301268DF80C60A8680290D8F80000C0
:2031FC0007490968109A0E6D0F998DE806000E9B294602AAB0472D490028088023D505E0EC
:20321C00B40B00200C010020CF110020194807682FB15046514652464FF08073B8470D983B
:20323C0053F0CCFA21684031886F007828B10868006810B1007D352810D0012041F28831C7
:20325C000EF022FB0DE01A4991F90000401C08700D98C7F8009053F0B1FA02E01A2009F092
:20327C0097F811B0BDE8F08FF03400204E9055550E7A5555281A0000C0350020D132000066
:20329C0064320020ED650000DC3500209C0F00209638002002004300F40D0020A80B0020E7
:2032BC00A0360020B8360020D0110020E4100020D81100202DE9FE4F0090C04C0191083403
:2032DC00DFF8FCB2DFF8FCA2206802924030D0F89410DFF8089391F88320BF499846012A31
:2032FC0000F094806268D2680123002513705F460D7006683D70376817B9D0F80C05804792
:20331C0050460768DFF8E8A247B120685146006C029A0988006843460C30B84702984FF076
:20333C00E24717EA080705EA000008BF00284FD102992F46082017EA080700EA010008BF40
:20335C0000283DD0AB48AC4F90F900108046491E0170788842F20146864202D0311D8142D1
:20337C000CD1484600680199826C0098904728B10088798842F6014282420BD151460888C3
:20339C00B0F5105F22D19E4841699C48016011F001FF30E0361D8E4214BFE1201C2008F0F9
:2033BC00F7FF98F9000028B198F90000002800F31A81FEE02068D0F858242946284608E1DA
:2033DC008C4890F900108046491E01701D2010E08848276890F900108046491E0170386C5F
:2033FC00006840680078800902D212F005FE02E0E92008F0CDFF98F90000002800F0E4800B
:20341C0098F90000002800F3EE80D2E06268D2680123137000250D7001680F6817B9D0F8FF
:20343C000C058047484600680199826C0098904706465046DFF8CC91076847B12068494617
:20345C00006C029A0988006843460C30B8476E480299DFF8B8E10288022315EA080703EA20
:20347C00010008BF002832D128464FF0E247084017EA080708BF00281AD14FF48600202725
:20349C00084017EA080708BF00280AD1002E77D0318840F60300884272D01D2008F078FFCF
:2034BC006EE001990098029A4346FFF7F7F867E0504991F900007746401E0870387886280B
:2034DC0002D012F099FD5BE010F064FC58E0494F97F90000DFF838C15B46401E387043F2BF
:2034FC00084090421D7009D061460988831C934204D0884202D01846884213D186B1308819
:20351C0043F6030181420BD0284606F02BFA97F90000002858D097F90000002863DC48E02C
:20353C00614609884846038843F60400984230D088422ED090422CD03648008840F609012B
:20355C00814226D0B3F5505F05D0180B16D31D2008F01EFF12E0304828490068774600F517
:20357C00C07008603878862802D011F013FE05E001990098029A43460FF0BAFF13F08CFCD6
:20359C001C4991F90000F8B191F9000000282ADC0FE022480078022822D0032820D0284649
:2035BC0006F0E0F997F9000070B197F90000002819DC2068D0F84C05804714E00C01002039
:2035DC00CF110020281A00002068D0F8582428460146904707E0C046D0110020B40B002068
:2035FC00284608F0D5FE6068C0680570BDE8FE8FD2360020D8110020D034002080380020B2
:20361C00D0360020F2340020DE35002096380020C2350020BA36002028010021E80F002079
:20363C002DE9F04FC64D2869AA89296A2C89806DADF11C0D8918083122460AF045FDA88997
:20365C00DFF8E4822969001982B2886D08F10807001988653868296AD0F8D400AA818A1893
:20367C00083290F8836012780DF116000270A889022E00F1010080B2A88108D1AB4A0818DD
:20369C00083000781070A889401C80B2A88109180831096868460160A989091DA981042175
:2036BC000FF084FD2C69009013F0C8F9E0632C69009812F0C7FFA4F84000EA2011F080FCEA
:2036DC009B48026812B12869012190479D484FF0020B022E80F800B008D1786840690078D1
:2036FC0020B113F019FB08B10420E8702C69E878217C084320749DF91600002114F0DBF97B
:20371C0084F8460004F17406A66521899DF91600636884F84800B4F85C000026401AC0180C
:20373C0002466060A08984F84760810A18D2010926D310F0070F07D000F00700032812BFC1
:20375C00101C6068401C17E06168C87800F00702401000F0380000EB42004018001D0BE0FF
:20377C003868D0F80813204688472C69606E10B1B4F8680090B160686061A089000917D258
:20379C0094F8600018B33868D0F80C13204688472C69E06CD8B1B4F85000C0B93868D0F853
:2037BC00541205F1100088472E610DF05FFCB7E03868D0F8B4142046884760702C69A06961
:2037DC00637860651BB1F22011F0FAFB2C693968D1F8B8201078002800F09B80B4F80CC04F
:2037FC00DFF850A10CF00703022B67D16B78002B64D16378002B61D12969B1460DF10E006A
:20381C008DF81790283114F00EF9296928314C6801A844600E8906810A68026054463B68E1
:20383C002088401C2080D3F8B8002A69436A506E04210DF11702984705F1100638B938688F
:20385C00006C03681BB19DF8170083F86800296991F83000022812D139683068D1F8D410DC
:20387C005A462830203112F04BFD38B93868D0F8D4100DF10E00163114F0D5F829692E4830
:20389C000078862808D16088401C60808989287901F010010FF0C4FE3968B8310A681078EF
:2038BC0038B1976C2FB128693946884740468168B831D1F89C1130464E462DE01F4B1B785F
:2038DC00F3B1CCF30133022B1AD1607800287FF46CAF79689DF816008968544608702A696D
:2038FC00A088401CA080E87802F128011C320FF0B3FD404608300168D1F8B8202C691078AA
:20391C0038B1976C2FB1394620468847404681682C69D1F85812204688472E6113F060F9B4
:20393C0007B0BDE8F08FC0460C0100208D0D00202C1A0000F80F002096380020933800205D
:20395C004C3300209138002000B5ADF11C0D0191009000980490049809F0C8FBAF48007832
:20397C004FF4804113F022FFAC48007811F08AFDAB49086014F00AFAA848A94900780968E0
:20399C000DF0BAFE0EF09EFEA548006880095FD355E014F06EF80390A2488068C16B087BF9
:2039BC00401E0873039852F009FF029800788DF814009C4989680298D1F89810486002985F
:2039DC0040788DF816009DF8160018B9029814F0D9F929E09DF81600DC281BD09DF816003E
:2039FC00DD2817D09DF81600E42813D09DF81600F3280FD09DF81600DE280BD09DF8160049
:203A1C00DF2807D09DF81600E82803D09DF81600DB2809D1029814F0B1F99DF81400162867
:203A3C0002D102A814F0A6F99DF81400162806D07C488068D0F89800001D14F09BF979480B
:203A5C008068C06B001D11F045FF00280290A0D173480068000C1FD317E002980078D02888
:203A7C0003DB02980CF04EFA0FE06E4989680298D1F898104860029814F084F96948806870
:203A9C00D0F89800001D14F075F9644800780EF0C1FA00280290E0D161480068400905D3A1
:203ABC002E208DF8140005A814F06CF95C480068400805D325208DF8140005A814F062F9D7
:203ADC0057480068800805D326208DF8140005A814F058F952480068C00805D327208DF814
:203AFC00140005A814F04EF94D480068000905D329208DF8140005A814F044F948480068F8
:203B1C00C00908D300208DF815002D208DF8140005A814F037F942480068000A08D300206D
:203B3C008DF8150030208DF8140005A814F02AF93B480068400A08D300208DF815003520F3
:203B5C008DF8140005A814F01DF935480068C00A08D300208DF8150023208DF8140005A81C
:203B7C0014F010F92E480068800A08D300208DF8150036208DF8140005A814F003F9284813
:203B9C000068000B08D300208DF8150037208DF8140005A814F0F6F821480068400B08D37B
:203BBC0000208DF8150038208DF8140005A814F0E9F81B480068C00B01D311F029FF1948B8
:203BDC008068D0F89800006808B313F052FF069014488068D0F89800006802901148806895
:203BFC00D0F8980000210160069852F0E7FD0D4989680298D1F898104860029814F0C2F8B1
:203C1C0008488068D0F89800001D14F0B3F804490020086014F0AAF8A6E6C046203800209F
:203C3C00201100200C01002090B503AFADF13C0D0293ADF810208DF81610019000208DF8C1
:203C5C0017009DF816008DF818000020ADF812000298007A00F03F010298C0886FF39F20CB
:203C7C0040EA0130029989886FF39F2141EA003103910020ADF814009DF816008DF81800EE
:203C9C00FDE0BDF81400401CADF8140001989DF818108078884200F0DA80BDF810001728E7
:203CBC00C0F0D580BDF81000C01FADF810009DF81800BDF8101007AA002304F091FD9DF81D
:203CDC002700800875D39DF82700400871D20298007A0C900298C0880D9024E001208DF8B1
:203CFC0017002CE007980399884228D101208DF8170024E09DF824000C9988421FD101208D
:203D1C008DF817001BE09DF824000C99884216D1BDF822000D99884211D101208DF81700FB
:203D3C000DE00420B6E097F9000010F00F00D5D0401EDFD0401EE6D0401ED3D0F1E79DF8ED
:203D5C001700002835D07868002829D097F9000000F0F000102823D10020009078688289CB
:203D7C0078688368002107A808F0F8F9A0B97868C18878687A6880684018796892880968B3
:203D9C0012F0BEFA40B9029807A91CC91CC006C980E8060000207DE000208DF8170008E0EB
:203DBC00029807A91CC91CC006C980E80600002070E09DF82700C0082AD3BDF81000BDF834
:203DDC002A10884207DDBDF82A10BDF81000401AADF8100031E09DF81810BDF810200198D0
:203DFC000BF06AF801980021FEF76AFE2A4802780198C078401C90FBF2F15143401A8DF839
:203E1C0018000020ADF810000020ADF8140014E001980021FEF754FE1F4802780198C07819
:203E3C00401C90FBF2F15143401A8DF818000020ADF810000020ADF81400BDF81200401C40
:203E5C00ADF81200BDF810001728BFF42BAF124801789DF8180040180F490A78401E90FB63
:203E7C00F2F15143401A8DF818009DF81810880000EBC10001990918888BADF810000648F6
:203E9C00BDF81410007888423FF7FBAE0298002181810A200FB090BD8F31002010B5ADF1D6
:203EBC00280DADF80C308DF81020019100909DF810000021042302AA11F0B4FA9DF8080014
:203EDC007E2805D19DF8101000987C220FF0D6F89DF808007C2803D085490120087005E131
:203EFC000198C089C01DADF80E00BDF80E10BDF80C004018B0F5005F00F3F5800198017AC8
:203F1C000198C088001261F39F008DF818000198C08800F0FF008DF8190001988088C0F340
:203F3C0087008DF81A00019801998088C98900F00300C1F3851141EA80118DF81B10019870
:203F5C00C08900F03F0080008DF81C000198C089ADF81600BDF80C00BDF816104018ADF876
:203F7C001400BDF80E000C285BDCBDF8162061480C990AF0A9F85F49BDF81600401806A995
:203F9C000A68026009790171BDF81600401D81B25848002212F0DCF88DF820009DF81C10E4
:203FBC009DF82000C0F3811008438DF81C009DF8200000F03F00800040F002008DF81D00C8
:203FDC0096208DF81E00BDF816004A49401806A90A6802608A88828089798171BDF80E3038
:203FFC00BDF80C10434A9DF810000CF007F940490870BDF80E10BDF80C004018ADF80C0008
:20401C000099BDF80E20C8888018C8809DF81010880000EBC10000990918BDF80C00888369
:20403C0056E0BDF816100C98002212F091F88DF820009DF82020052106A812F089F88DF8AC
:20405C0020009DF81C109DF82000C0F3811008438DF81C009DF8200000F03F00800040F0EA
:20407C0002008DF81D0096208DF81E009DF81000BDF816300C9ABDF80C100CF0BFF81C49F8
:20409C0008701B4C9DF81000BDF8141006AA07230CF0B4F82178084320701548007828BBF9
:2040BC00BDF80E10BDF80C004018ADF80C000099BDF80E20C8888018C8809DF8101088005E
:2040DC0000EBC10000990918BDF80C008883FFE70748007850B19DF81010BDF814200098AE
:2040FC000AF0EAFE02E00249052008700AB010BD80370020D03700202DE9F04F8A4E3068AE
:20411C00416EADF12C0D02A88847884C7E4DA178E06902290DD160B1002008F035FE306886
:20413C004168E0698847E9688969012008700020E06176494FF0010A4FF00008083584F85C
:20415C0002A00F68CDF814801FB1384680470890E069002843D10BF095FD00282FD00BF0F0
:20417C0091FD01282BD00BF08DFD052827D00BF089FD0C2823D00BF085FD0D281FD00BF084
:20419C0081FD0B281BD00BF07DFD0E2817D00BF079FD172813D00BF075FD19280FD00BF0BA
:2041BC0071FD1A280BD00BF06DFD1B2807D00BF069FD1C2803D02868D0F84C058047306859
:2041DC0000F1200128B92868D0F84C05804731682031096804F1200088474D48E06312F047
:2041FC0047F82968D1F8D40090F85300D1F83C14884707462868D0F8D40090F942000FF030
:20421C00DFF8444BB0F1FF3F04D0010828BF4FF6FF70188039897A68491E4A433968184696
:20423C004FF47A791A3801EB5201C0F8048042464280B1FBF9F10184417B6AF30301417329
:20425C00017B83466AF3C71101732868D0F8C4038047F8B9B88930496F68B9FBF0F0C0B226
:20427C000870796899FBF0F008702868D0F8D40090F85300022806D010F088FE032809D14B
:20429C0005215C2001E00221A820244A1170696809680870E36937682169DFF884901BB3BD
:2042BC00404608F071FD2A686178E069D2F8D420376892F85320914209D0796888476868BC
:2042DC00806980F800A03068216906680DE0022142468DE806003E6D4346594602AAB047A8
:2042FC001048C0F800B006E03E6804F1200348465A46B047E0612868D0F8D40090F85300D1
:20431C000BB06070BDE8F08F0C010020301A000054F100804E3200209C0F0020CE1200202B
:20433C0010280020A80B0020B40B0020D80D00202DE9F04F7B4C7A48A1688046ADF1340DC6
:20435C00884207D1784890F90000002818BF002040F0E28013F08DFB0A907F48002500F1A3
:20437C00080BDBF80000A8F80250D0F8B8000078002804BF4FF486000C9502D077A003C848
:20439C000C910B906069416E02A888470320674E8DF8180030780595800807D27D202946B4
:2043BC0007F0BCFD8DF81850079000E00795B2465F4E06F11400016811B19AF800008847F5
:2043DC003046C06808B180470890C8F8085098F80C005949574F594E65F3030088F80C0081
:2043FC00A3680868C8F820709E420AD0318AB0F84020914205D1F189C28F914208BF4646BF
:20441C0010D075804E4AC6F8048001211170717B21F00F0141F002017173B560317B65F3F0
:20443C0003013173DFF81C9199F8007017BBDBF80010D1F8B8100F781FB99AF8001089095A
:20445C0018D341490F7837F07F0713D13F490F7887B96069C06B8047B060307B012720F0B6
:20447C000F0040F002003073B0688DF80C70324B0290186861690C9A0F6D354B0B998DE80F
:20449C000600314602AAB8470028608035D42649304F91F90000401C087097F90000C4F82F
:2044BC0008802946401C387002200DF0EDF9DBF80000AC3001680F7889F8005007B1802513
:2044DC00B4F84C10806A4FF67F720A4015432943A4F84C10C18CA4F85A10418D00F1440735
:2044FC00A4F85810396804F14F063160786870600A9852F063F901200EE00A9852F05EF9E6
:20451C000B48426812B1284601469047022041F288310DF0B9F928460DB0BDE8F08FC04621
:20453C0064320020A00B0020D911002092380020281A000000C42264F40D0020A036002047
:20455C00D0110020D11100209638002022380020B9260000D81100200C01002000004F8CE4
:20457C00200000012DE9F04F794E7069416EADF12C0D02A88847DFF8DCA19AF9000038B13A
:20459C00754890F90000002818BF002040F0DC8013F06FFA714C0A902078800808D27D20B4
:2045BC00002107F0BBFC079000258DF8185001E000250795A0466A4C029504F11400016820
:2045DC008DF80C5011B198F8000088472046C06808B180470890059503208DF81800614C10
:2045FC00A5606580E37E217B0122174665F3030167F300032173217BE37662F3C711217335
:20461C00594AE17E67F34101E176E17E65F38201E176E17E65F3C301E176E17E65F304115A
:20463C00E176E17E02F1080B60F34611E176DBF80000D0F8282404F11C01F4209047DFF8E6
:20465C002C9199F800308BB9706998F80010844689090DD3C06B8047A060217B21F00F0118
:20467C0041F0020121738DF80C700290D6F814C040483F4A4FF080718DE803003E4BDCF80B
:20469C0050701068214602AAB847354900284A6870804CD43049394F91F90000401C0870ED
:2046BC0097F90000401C38709AF90000B4602946401C8AF8000002200DF0E6F8DBF8001076
:2046DC0001F1AC021068077889F8005007B18025B6F84C0017684FF67F7303401D4328433B
:2046FC00A6F84C00237E3A7862F3C7132376D1F8D400C28CA6F85A20428D00F14405A6F8EF
:20471C0058202A6806F14F073A6068687860D1F8D400C18C6186418D00F1440304F12806EA
:20473C0021861968586831600125706008E012B1284601469047022041F288310DF0A4F810
:20475C000A9852F03BF828460BB0BDE8F08FC046A00B0020DA110020D91100209238002009
:20477C00281A0000DC3000200C010020D1110020F40D002020004300B9260000D811002014
:20479C002DE9FE4F9B4615468946824613F071F97B49019008680CAF504508BF48687B4C07
:2047BC006FF0010828B1B03012F074FE002840F0D68011F003FD061C00F0DB8004F5CC70F7
:2047DC0013F043F90023B4F9B000C6F80C90401C86F832306FF31F30A4F8B000C6F808B0F5
:2047FC00B4F8B00030866748C6F810A097E80C0020210027B8461940104006F1180383E857
:20481C000300424686F8332006F1200383E88001E8683064287C86F84400286870632879CC
:20483C0086F83800A868F0636869B064A869F064287F86F85000687F86F851002F7C27B943
:20485C00EF6817B1012086F844002F795FB999F80C0000F00F00022805D1012086F8380007
:20487C00D9F808007063484608274568002D18BF002F70D100886FF30900B0F5305F18BF94
:20489C00022506D196F83300082540F0100086F8330006F1180090E80C00414606F11807EF
:2048BC0045EA0200194387E80300D4F8D400824507D194F8D800410824BF00F0FE0084F8A4
:2048DC00D80031480768002F39D004F19C000090D4F8A410D4F8A82004F194052B4630461A
:2048FC00B84710F1030F10D0B6F93010B4F9B020914207D0B4F9B01001F6FF716FF31F310E
:20491C00A4F8B01010F1020F1BD010F1030F18D096F83300B6F9308040F0800086F83300A6
:20493C0000278AF8F4702868864205D0F068007B00F00F0002281CD10CF062FB19E06FF087
:20495C000200B4F9B010804601F6FF716FF31F31A4F8B01005E07F1E2846FFB285E76FF025
:20497C00020894F8D80040F0040084F8D800C4F8D4A0019851F022FF4046BDE8FE8FC0463C
:20499C00D4010020FFEFFF9F281200202001002000B5ADF12C0D009000980078E12804D1D5
:2049BC0074490868401C086064E000980078E92804D171490868401C08605BE00098007877
:2049DC00F02804D16D490868401C086052E000980078F12804D16A490868401C086049E0A4
:2049FC000098007828B90098016900200AF07EFF40E000980078642835D100208DF810009A
:204A1C0000208DF810009DF81000032832DA9DF81010880000EBC1005A49085C009949789F
:204A3C00884216D19DF81010880000EBC100564940180190019805A907F064FD28B106A911
:204A5C000A6802A802604968416002A80AF020FC10E09DF81000401C8DF810009DF810007F
:204A7C000328D4DB06E00098007818B147490868401C086000984078000A78D300984078C8
:204A9C00C00931D34FF440704FF480710BF0C4FE01900198F8B10098007848B10199488902
:204ABC0020F4807048814FF4FA6010F09FF912E00199488940F4807048810199488940F4EF
:204ADC00007048810199488940F00100488141F2707010F08BF900980078002847D12C49C0
:204AFC000868401C086042E000984078800908D30098007800283AD126490888401C08806A
:204B1C0035E04FF480504FF480510BF085FE0190019828B30098007828B90199488920F44A
:204B3C00804048811CE001984089C00B0AD30199488920F4804048810199488940F40040E3
:204B5C00488104E00199488940F4804048810199488920F4805048814FF4FA6010F07AF93C
:204B7C000098007818B90C490868401C08600BB000BDC046BC300020C0300020D0300020F5
:204B9C00D4300020C6330020BC330020C4300020B0300020D8300020A43000202DE9F04730
:204BBC00DFF8B4910E46D9F808101F4615460446ADF1300DBEB1B5B130784FF0010808FAD4
:204BDC0000F001420FD01046002112F05AFFA560666012F04EFF614D82462878022804DB9C
:204BFC00504651F0EBFD0020B3E000286DD102F0C1F85B495B4E086840F00200086008A80F
:204C1C00C9F8006012F0BEFC574E5849707808AA0A9005F1DC000DF0A9FF554905F58C7016
:204C3C0008AA0DF0A3FF08A812F07CFC192108AB3078504A099005F15C000FF0EFFB4E4A42
:204C5C0005F178001A2108AB0FF0E8FB4B49002205F5AA7013460FF021F94949002205F510
:204C7C00CC7013460FF01AF946480068C0F3814030B1454A05F130000421002311F008F927
:204C9C00B078012802D10E2007F0F4FC05F19C0012F0CEFA05F1940012F0CAFA002185F875
:204CBC002C1085F82010072085F84002A962A960364B197085F82D100526E960344A2E61B0
:204CDC0004206A6211F08CFA287805EB8001401CC1F8B440C0B22870504651F06FFD1FB902
:204CFC00684612F0E1FA6F4638684FF4FA76E6602060B86941466062388A6175E082F8697A
:204D1C00E062786800280CBF40F6C410002120612048E06120622175A061F86800B1E061A2
:204D3C00786900B12062B86800B1A061C82204F1300000210BF020FB04F14800002110F0CD
:204D5C0093FE1549002204F1B00013460FF0A6F820460CB0BDE8F087CC21084020010020D7
:204D7C0000200940110000E0E81C0000DD6D0100A5B3000045210100DD130100C165010097
:204D9C00B1690100B44F0050613201008D310020559C0000477C0000FB7901002DE9F04F99
:204DBC008246ADF11C0D01F0E5FF694800780AF069FF684C002615280DDC152814D001289E
:204DDC0021D90C381FD0401E24D0401E01280BD9401F09D012E0173815D0801E1AD0401E89
:204DFC0018BFB0F1020009D111F0AEFF022807D011F0AAFF012803D011F0A6FF21680DE0D2
:204E1C0005211F2608E011F09FFF0228F6D101210E4601E003210726204601604E4AD06854
:204E3C00C0F38150012804D112680120120E9040064312F01BFADFF828B1DFF82081FF22A0
:204E5C0040185B46401E471CC8F800007F1E03F8012BFBD1DAF80020002702F0FF03FE2BF6
:204E7C001CD0D4463B46012502F0FF04FF2C0ED0A04205D3A14203D805FA04F4264201D0C3
:204E9C00022062E002F0FF0227430BF802305CF8042F5B1C02F0FF04FE2CE7D1092007F00B
:204EBC00E9FB3048C0F800A02F48012110F0DCFD364C00254FF00109A84609FA05F0064292
:204EDC0014D1074207BF05F0FF0141F4C0411BF805005AF82010254803F024FEE8B24FF0A2
:204EFC00FF3111F03FFBC4F8008001E0042020601A4800686D1C241D8542DED904A812F0AA
:204F1C0011FB1B4C20781C4A05901A48102104AB0FF084FA684612F035FB60681849029015
:204F3C001648CDF80C806A460DF020FE154951F80D0C20F4F85040F4005041F80D0C124A8D
:204F5C00C1F8FF9F4046C2F8009007B0BDE8F08F8F37002044120020A84F0050401200201E
:204F7C009034002060380020802D0020007FC767801D000088350020416901006430002026
:204F9C00193C01000D3009402C000940342C002000B5ADF13C0D002000900098322880F274
:204FBC008A80FFE70099880000EBC1006D49085A4FF6FF71814277D00099880000EBC10074
:204FDC006949085A40086FD30099880000EBC1006549085AADF80400BDF80400C00B08D332
:204FFC000099880000EBC1005E4940180CF0B4FFB5E0BDF8040010F4104F48D008A8002180
:20501C000C220BF0B9F902208DF834000099880000EBC1005349085AADF82C000BA802A9C4
:20503C0007F070FA28B103A90A6809A80260496841600099880000EBC1004A49085AADF830
:20505C0022004A480088ADF82000BDF804000021400B01D3012000E0002000B1012108A896
:20507C0012F0FEFA0099880000EBC1003D4940183F494289114041810099880000EBC1003C
:20509C0038494018418921F4304141810CE0BDF80400800B08D20099880000EBC1003149B8
:2050BC0040180CF059FF5AE00098401C009000983228FFF677AF002000900098322821DAC0
:2050DC000099880000EBC1002649085A4FF6FF71814211D00099880000EBC1002249085A23
:2050FC00400809D30099880000EBC1001D494018418921F4304141810098401C00900098B7
:20511C003228DDDB002000900098322820DA0099880000EBC1001349085A4FF6FF718142C2
:20513C0010D00099880000EBC1000F49085A400808D30099880000EBC1000A4940180CF055
:20515C000BFF05E00098401C009000983228DEDB0098322803D141F288300FF07BFE0FB02D
:20517C0000BDC046002100200A21002010120020FEFCFFFF2DE9F04F754C0646A068D0F858
:20519C000001807AADF15C0DC00009F0E5FC00280C9008BF1A2400F0D6804FF0010AF07D91
:2051BC008DF848A006F118018DF849000A680DF14A073A604A687A60097A397212F059FC1C
:2051DC001590A068D0F888240DF1460181209047B07D00283DD004208DF803A04FF00008E0
:2051FC008DF80400B78A8DF80280A568ADF80070D5F894246946D22090474FF6FF79C346DD
:20521C0045461DE0C00043F800B0B18AC0188180DCF80020D42008A9904702E04846ADF8A6
:20523C0004008DF80780B08A8DF806803B68ADF80000D3F894246946D12090476D1CADB2D3
:20525C0004F108073A6802F580721068C088A84236DCB08A00279DF84920ADF838000DF1AD
:20527C004A018DF83A700DF13B0008F02DFFA068D0F894248DF844A00EA9D0209047071CA9
:20529C0018D1B08A31461022ADF808000DF10A0008F01AFF3069A7680790D7F8942402A9EF
:2052BC00D3209047071C02D10C9838B104E00C9820B101E00C9808B10EF070FEFCB23FE0B5
:2052DC00ADF80250B08AADF80000D2F888236946D12090470028A1D1BDF8040081459DD06A
:2052FC00ADF82000A068D0F8882408A9D420904704F1080718B10C9808B303461CE03868C4
:20531C0004F108073B6800F2944CD3F8000190F80AE00C9B404601E0401CC0B2864507DD2F
:20533C0003EBC0018988894502D0B28A8A42F3D186457FF467AF13B118460EF02FFE192447
:20535C00159851F03BFA204617B0BDE8F08FC0460C0100202DE9F04FDFF898810446D8F82B
:20537C000000416EADF14C0D02A888476C4F08373868D0F8D4006B4D90F883A005F1100053
:20539C00016809B1002088472846806808B180470890DFF864B15B4E9BF80000002800F031
:2053BC009E805648007830F07F0040F09880544D2878002840F09380F088534BBAF1010F39
:2053DC0000F10100F08008D0002005909860197B60F303010120197312E04C498C60087B3C
:2053FC0020F00F0040F0030008730A7B012060F3C7120A7300254D604A7B60F303024A73C9
:20541C0049497D680870E9681C460B7823B93968D1F8582400219047BAF1010F01D111F003
:20543C0021F912F026FB45461290DFF8E480E07BB146BAF1010F1DD12868416E0AA88847F0
:20545C0038488068002608B1804710902F4F388A0D96314606F062FD0F9028682D4B056DBA
:20547C003146424602208DE80300106839460AAAA84710E000266680314606F04FFD079091
:20549C002868244B076D424608258DE860001068214602AAB84720490880B9F80810002887
:2054BC0012D417498320214F087097F90000BAF1010F00F10100387008BF144C1748046030
:2054DC00129851F07BF912E0491C88B20027A9F8080012988BF8007051F070F905E000279D
:2054FC0030898BF80070401C308111F017FB13B0BDE8F08FB40B0020933800209638002025
:20551C0022380020F80F0020D0360020F0340020F40D0020B5BA0000E4100020A80B0020ED
:20553C000C010020281A0000CF110020D81100202DE9F04F704C002704F19400ADF1140D57
:20555C00B946B846056802978246CDF80C9025B3D4F8A800B84203D1D4F8A400B8421AD095
:20557C00D4F8A460F6B1D4F8A41028690969884218D195F83300400914D30127D4F8A400DA
:20559C00C06840880028F9D0D4F8A400C06840880128F3D006E0012704E004F1DC000221DC
:2055BC0012F07DFA002D43D087F0010B03A802AA594609F0F5FE5FEA000809D0012F07D080
:2055DC00039929B104F5AA7011F05FFD4D462FE0002D2DD04948066856B3B8F1000F27D046
:2055FC00039828BBCDF800B002980190D4F8A400D4F8A8100AF108035246B047401E02D0B8
:20561C00401E08D014E0029800B9284601214B460091014605E001230093D4F8A400D4F820
:20563C00A4100069B1F930104A4602F09BFB60E0002F5ED0002D5CD060682969884252D1F2
:20565C00B8F1000F0BD0039848B1D4F8A40030B9D4F8A80018B908200FF064FC49E0082091
:20567C0011F0C2F995F8330004F1DC06C0F3001028B9504610F0D2FEC4F8A40004E05046D7
:20569C0010F0CCFEC4F8A800A8691D49C0430860A8694A6810434860E869C04341F8080C7F
:2056BC00E86951F8042C104341F8040CEC680820294610F095FD204610F038FD2088A0F612
:2056DC00020040B141F21E01401A04D041F6E671401A012803D80120214610F081FD4FF00A
:2056FC008041304603E004F1DC004FF4806112F0D6F905B0BDE8F08F200100202C12002036
:20571C00101004402DE9F843684E074606F10805674C28684030D0F89410237891F883905B
:20573C0023B1D0F80C0580472868403001680B6813B9D0F80C058047A04601205D4C88F861
:20575C000000012F277044D9BF1E73D07F1E2AD07F1E5CD07F1E0FD07F1E53D12968096C86
:20577C00096891F86D20628191F86E7007B90746A7700FF0CFF85FE0B9F1010F5CD106F135
:20579C0008052968D1F8D420096C09680020C98A2071C90934BF92F8251092F84E1061706B
:2057BC0011F040FF48E00027B9F1010F27710DD12968D1F8D40090F85300D1F83C1488471D
:2057DC00C07B022802D1384608F0E2FB0FF0DEF832E0002006F1080520712868D0F8D4104A
:2057FC00006C0068C08AC00934BF91F8250091F84E006070B7B9CF78A7B10228C4BF022080
:20581C0060700FE02868D0F84C05804714E02868006C006890F86910217190F86A00607090
:20583C000027677104F06CFB2868006C006818B9BDE8F88308F0D6FF2148007898B928680E
:20585C00403001680F682FB9D0F80C058047B068006C07687A682178107800F02000E070FE
:20587C009078A07100E02178032903D0022918BF062918D112F0FDF8217802290CD00E4973
:20589C00097811B90D49097831B1022188F8001050F094FFBDE8F883832188F8001050F0CE
:2058BC008DFF0FF01BFABDE8F883C0460C01002096380020E80F0020913800209338002000
:2058DC002A2D00202DE9F04FDFF874818146D8F80000416EADF12C0D02A88847594D05F1E2
:2058FC000804226840321068006820B9D2F80C0580472268403254484FF0010B676880F8FF
:20591C0000B0F868007840B9D2F8182458460021904705F1080422684032106800684768C1
:20593C00068939783046C1F3401106F0F7FA474D079005F11000016821B12068006C0068E1
:20595C000C308847AA46DAF8080008B1804708900BF0C2FB3E4DEE732F6100266E8012F0F4
:20597C0088F80A90B9F1010F0596DFF8ECC06E8003D1384861461C31086039F001094046C2
:20599C002FD161464E804D604B7BCF7D022262F303034B730B7B66F303030B7327F00F03EE
:2059BC0043F00403CB756E606B7B6BF303036B73236840331B681B685F683F78BF0908D336
:2059DC00264F6F605B689B78BB736B7B62F303036B73234962464A604A7B66F303024A73A6
:2059FC0000E029460068076D1E48082233468DE80C001D4B006802AAB8471C490028088046
:205A1C0010D5DAF800703FB12068006C006831460A4613460C30B847584641F288310BF017
:205A3C0033FF06E01249134F91F900003D60401C08700A9850F0C2FE0BB0BDE8F08FC046F3
:205A5C00B40B00200C010020CF110020281A0000D0360020801A0600D0340020403700205B
:205A7C007C110020F40D0020D1320000E4100020D8110020A80B0020F8B56B4D05F10804E2
:205A9C002168064614310868407F002800F0CA80D1F8C000B6F84220C08C904240F0C28016
:205ABC00D1F8581306F128008847002800F0BA80206840690027477721687031486E90F8D8
:205ADC00290028B16068816A0220884721687031086890F82B0018B16068816A012088474B
:205AFC00307C400908D36068816A102088472068D0F82813802088476068C16B202088470B
:205B1C002168C868D1F8FC14103088477068226841785269007800EB0120C0F303215176D0
:205B3C0022685269C0F3003393762268526900F00F039377C0F303132068D0F8D40080F85F
:205B5C002C3022680C32D2F8C81091F84F000F2806D093689B7F984202DD7368DB780BB1C6
:205B7C009068807F4873106880F83070D2F8C800417B0F290BD19068C07E022852D1D2F818
:205B9C00580180472068D0F86C018047F8BDD2F800253046904723680C339868C07E022822
:205BBC0017D1D3F8F014186888472268D2F8D4001169447BD06831F81430D2F8F0244FF49C
:205BDC00707707FA04F1C91A904705F1080423680C33D3F8C8003289D3F8A83190F82C1090
:205BFC0002209847206800F11401D1F8C020D0F8D400527B90F82C0082420FD00868D1F858
:205C1C00E81488472268D2F87C015169886050694169D2F8F0249047A9681431D1F81413CC
:205C3C0010208847F8BDC0460C0100202DE9F04F674C8346A068D0F80001807AADF12C0DEE
:205C5C00C00008F089FF089011F013FF0A90A06800F59162D0F8000100894FF6FF7A00267D
:205C7C00D146A04638E006AF59460822384610F059FC78B92068D0F81C153846884700287B
:205C9C003ED02068ADF804A0D0F894246946D120904735E0ADF81490ADF8169006A8FF219B
:205CBC0008220AF069FB2068D0F8942404A9D420904750462768ADF80400D7F894246946BC
:205CDC00D1209047404680682268D0F80001761C02F59162B6B20089B04208DC0A9850F0FA
:205CFC006DFD089808B10EF059F900206CE0444608342068D0F80001C07A0127002535E056
:205D1C002268444608342068D0F80001C0886D1CEDB202F5916234E0ADF800608DF802507C
:205D3C001268D02069469047A8B99DF80C00012810D19DF80B0068B90DF10202082000213F
:205D5C0012F8013FFF2B03D1401E01F10101F7D10829B7D00027226808F108042068D0F807
:205D7C0000016D1C02F59162EDB2C07AA842D3DC002FA7D108F108042068D0F80001C088DC
:205D9C000025A8429EDDADF80060ADF802501268D120694690470028B2D1BDF80400814546
:205DBC00AED0ADF810002068D0F8882404A9D420904700283FF457AF0A9850F0FFFC089842
:205DDC0008B10EF0EBF819200BB0BDE8F08FC0460C0100202DE9F04F664E8046B068D0F813
:205DFC000001807AADF12C0DC00008F0B5FE06F108070028089008BF1A2500F0B78011F056
:205E1C0038FE00244FF0FF0B25460A9027E0ADF800808DF80240D2F88823D02069469047E0
:205E3C00D8B99DF80C00012802D19DF80B1019B998B99DF8071081B1002814BF082304231A
:205E5C000DF103005B1E00F801BBFBD105703868D0F894246946D0209047641CE4B23A6869
:205E7C0002F580721068C07AA042D0DC06F108073868D0F80001C0884FF6FF74B246A94687
:205E9C001EE0089901EBC0018B8898451CBF401CC0B262D1C1F800908C801268D42004A95E
:205EBC00904702E0761CB6B227E03A680AF108073868D0F800016D1C02F58072EDB2C0889E
:205EDC00A842D8BF4D464BDDADF80080ADF80250D2F88823D120694690470028E5D1BDF8CF
:205EFC0004008442E1D0ADF810003868D0F8882404A9D420904790BB4E463A6802F5807260
:205F1C001068C088B04210DDADF80080ADF80260D2F88823D120694690470028C2D1BDF83E
:205F3C001000BDF804108842BCD13868D0F80001C088B042B9D1ADF81440ADF8164006A846
:205F5C00594608220AF018FADAF80860386800F29442D6F80001867A4846864291DC1925DE
:205F7C000A9850F02BFC08980EF018F828460BB0BDE8F08F0C0100202DE9F047654C05468B
:205F9C0092460834206895F83080D0F888240F469946ADF1300D0DF10E018B209047206872
:205FBC00D0F8882401A98A20904795F82500002840D1B8F1000F1AD1BDF80E104FF6FE7012
:205FDC00884206DCBDF80E10884240F09C8001A916E0B5F844009DF80E608DF810000012D5
:205FFC008DF81100BDF80E008DF812601CE0B8F1020F0AD0B8F1030F40F0858005F1280196
:20601C0004A811F010FD092612E0287CC00934BFB5F84200B5F844008DF8100000128DF81D
:20603C001100288D8DF81200001205268DF81300002015E002280CBF05260926012818BFAE
:20605C0005F11C0106D12068D0F8882407A98920904707A904A8721E08F036F895F8260049
:20607C000DEB0601C8732068D0F898343A46314604A89847002846D1B8F1000F19D1BDF896
:20609C000E104FF6FE70884205DCBDF80E10884239D101A915E0B5F844009DF80E608DF8A9
:2060BC00240000128DF82500BDF80E008DF826601BE0B8F1020F09D0B8F1030F23D105F1E3
:2060DC00280109A811F0AFFC082212E0287CC00934BFB5F84200B5F844008DF82400001207
:2060FC008DF82500288D8DF82600001204228DF827002068D0F8A444CDF80090386809A9B7
:20611C005346A04708B1F32000E000200CB0BDE8F087C0460C01002001282DE9F84F40F056
:20613C00B080DFF88491D9F83401012840F0A6800220C9F8340110F003FC01200EF042FD2D
:20615C005FEA000805D00120C9F8340110F006FC99E0112011F048FB00280CBF00250125B8
:20617C00102011F041FB08B145F002050F2011F03BFB08B145F00405444CA06A00680146FB
:20619C0001208847012805D099F83801012818BF002703D1002002F079F9012711F01EFB6A
:2061BC00DFF8ECA040080AD20026206A80680146504688478346BBF1040FF6D000E00126A3
:2061DC00304600214FF0FF3203F046FC012E0ED0BBF1010F05D1206A406801210246504696
:2061FC00904732496C39086840F003000860206840690146284688470B2011F0F5FA254E3E
:20621C0030B12068C06A3146091D0246088890470A2011F0E9FA28B12068C06A314602462B
:20623C00088890471C4903200124C9F834011B4E0C600023336028460CF0FAFE0128FAD157
:20625C00174D286804200EF0BDFC0646154804602868012F02D1204602F018F911F09AFAB5
:20627C0008200EF0AFFC0746C9F8344110F076FB57EA060018BF4FF0FF3804E06FF004085A
:20629C0001E06FF001084046BDE8F88FB8010010004003409E160000282008600C200840C3
:2062BC002C2009400C400940B4070020902208401FB500900020019000985F490078085C92
:2062DC008DF80800A5E000988078002840D10098007A00F0700001110098007A00F007003A
:2062FC00400000EBC1009DF8081040180099097C401824308DF808009DF8080010F0B0F8F5
:20631C000028019000F08F80009901981CC91CC00EC980E80E0001980199183048600098AE
:20633C000199406849681CC81CC11CC81CC10DC881E80D0001980199406824304861019810
:20635C00009A00994069127C496907F0BDFE6AE000988078012866D19DF8080024308DF8A3
:20637C0008009DF8080010F07BF8002801905AD0009901981CC91CC00EC980E80E0001982D
:20639C0001991830486000980199406849681CC81CC11CC81CC10DC881E80D0043E0009844
:2063BC00019040E09DF8080010F05AF80190019878B9009800780C280BD10098406840B175
:2063DC000098001D11F0D6FC9DF8080010F048F80190019838B300980078072812D100986D
:2063FC00407819280ED19DF808200198002109F0C3FF00980199007808700098019940786B
:20641C00487010E0019800999DF8082007F05CFE09E000980078401F3FF455AF0838BED01B
:20643C00401FBCD0BEE7019820B10448019900780CF0E2FE00901FBDEC1B00008E310020BA
:20645C00F8B5074661485F4C001DC26A0168B7F5C067C2F30722C4F81071C1F38441C4F8FD
:20647C001421C069C4F81811C0F38120C4F8280100F0A38094F830616EB9C4F82C71D4F808
:20649C001801C4F82001D4F81461C4F81C61D4F82851C4F82451D4F82C01D4F814510028A8
:2064BC0054BF02236FF0010304F59072116800EB4000C018431000EB937001EBA00111606F
:2064DC00D4F82011C4F81C5100291CDD1E293DDDD4F8240130B93429B4BF15391E21C4F804
:2064FC00201125E02A29BABFD4F820010B381E20C4F82001D4F81C013E28D4BF401C3F2096
:20651C00C4F81C011FE0D4F82401032812D011F10A0FA6BFD4F820010B300120C4F82001E3
:20653C00D4F81C010028CCBF401E0020C4F81C01032009E011F1140FA6BFD4F82001153084
:20655C000120C4F820010020C4F824014FF08057D7F8A401B4F81C111B4D40684FF47F42A9
:20657C0008230646009128463021B047D7F8A40101214FF400321123406800910646042158
:20659C002846B047D7F8A401B4F8201140684FF4F80212230646009104212846B047D7F8D9
:2065BC00A401B4F8241140684FF440620A230446009120212846A047F8BD002084F830018C
:2065DC00F8BDC046B407002000A00C4000A00C402DE9F84F584C009008346068C0684FF035
:2065FC00010B80F800B055480025057020688946403001681E460B68174613B9D0F80C050B
:20661C0080475048DFF83881D0F800C0B8F80230BCF1000F09D02068006C006819463A4635
:20663C0033460C30E04740464388DFF81C81DFF81CC1DFF820A1022015EA060200EA070037
:20665C0008BF002826D128464FF0E24300EA0701334008BF00290ED14FF4860020233840AE
:20667C00334008BF00284CD00098494633463A46FCF714F845E0414691F900206746521EEE
:20669C000A703978862902D00FF0B6FC39E00EF067FD36E0414691F90000401E0870C3B98D
:2066BC002B494A8843F2084328464646934204D1097CC910490838BF584603F053F950463B
:2066DC00057096F9000058B396F9000000282DDC21E0B3F5505F12D120481F4900686346B3
:2066FC0000F5C07008601878862802D00EF052FD05E00098494633463A460CF0F9FE10F09C
:20671C00CBFB50464146057091F9000040B191F9000000280ADC2068D0F84C05804705E0A5
:20673C002068D0F858242846014690476068C0680570BDE8F88FC0460C010020D011002020
:20675C00F0340020281A0000D811002096380020C0350020CF110020803800202801002169
:20677C002DE9F8435F4CDFF868815B4DD4F83C0100286ED0574E401E0AD0401E60D0401E61
:20679C001CD0401E53D0401E1AD0401E33D02FE04E4801250221006884F83A5170220423B1
:2067BC0040680091002107464046B847356004F1500011F048F92846BDE8F883022100E0E4
:2067DC0003214FF08059D9F8A40184F83A1140680025702204232946074600954046B847C8
:2067FC00D9F8A401C0687022294613460125DAE70320BDE8F88300262E606E6028688008C1
:20681C00FCD268688008FCD2374834490127001D06600E200F6005F001FA02200EF062FEB4
:20683C00C4F83C6184F83B610220BDE8F8830520C4F83C010027376030688008FCD242E09D
:20685C000320C4F83C010027376030688008FCD239E0234F01260F202E6042F62A21C7F8A3
:20687C000B004FF08059C7F80F10D9F8A40140684FF4C07207230221844640460091002119
:20689C00E047D9F8A401C06800214FF4C072072384464046E0472E6028688008FCD394F8DF
:2068BC003901C7F81B6018B9032100200E4602E0002028630321C4F83C6147F8011C6860B1
:2068DC0068688008FCD20020BDE8F883A401001000A00C4058600C4054600C4004800C40C1
:2068FC0001400C40B407002038500C402DE9FC418046D8F80450D8F800602878694610F084
:20691C0001FE28780FF060FA96F82410002781424AD03079401E28D0801E1FD0801E01284A
